:020000040800F2
:100000007007002069020008451F00083D1F000816
:10001000411F000889070008F921000800000000BE
:100020000000000000000000000000004D1F00085C
:100030008D07000800000000491F0008511F00083C
:10004000830200088302000883020008830200087C
:10005000830200088302000883020008830200086C
:10006000830200088302000883020008830200085C
:10007000830200088302000883020008830200084C
:1000800083020008830200087D07000800000000CA
:1000900000000000000000000000000083020008D3
:1000A000830200088302000883020008830200081C
:1000B0000D20000883020008830200088302000864
:1000C00083020008830200088302000883020008FC
:1000D0008302000883020008830200080000000079
:1000E0008302000883020008830200080000000069
:1000F0000000000000000000000000008302000873
:100100000000000083020008830200088302000848
:1001100000000000000000000000000000000000DF
:10012000830200088302000883020008830200089B
:100130008302000800000000000000000000000032
:100140000000000000000000000000008302000822
:10015000830200088302000883020008830200086B
:100160008302000883020008000000000000000075
:10017000000000000000000000000000000000007F
:1001800000000000830200080000000000000000E2
:100190008302000800F002F800F057F814A696E871
:1001A000000CB244B344DA4501D100F04EF8BAE88D
:1001B0000F000FA696E83000A5EB040504EB060738
:1001C000AAEB0704A7F101074FEA15154FEA34140B
:1001D000A4F10104AC4201D300F037F813F0010F91
:1001E00018BFFB1A43F0010300F001F8DBE71847E2
:1001F0005822000078220000103A24BF78C878C145
:10020000FAD8520724BF30C830C144BF04680C601C
:1002100070470000704700000023002400250026DE
:10022000103A28BF78C1FBD8520728BF30C148BF59
:100230000B607047752900F0ED80002070471FB5F6
:1002400002F0DFF81FBD10B510BD00F05CFA1146DA
:10025000FFF7F5FF01F0D2FF00F07AFA03B4FFF7E1
:10026000F2FF03BC00F082FA0948804709480047C2
:10027000FEE7FEE7FEE7FEE7FEE7FEE7FEE7FEE756
:10028000FEE7FEE704480549054A064B70470000B3
:10029000F91F000895010008700100207007002078
:1002A000700300207003002053EA020C00F0698004
:1002B0002DE9F04B4FF00006002B1FBFB3FA83F57A
:1002C00003FA05F424FA05F65E4012BF1643B2FAAB
:1002D00082F502FA05F4C5F120051EBF22FA05FCDD
:1002E00044EA0C04203556EA044C4FEA144418BF83
:1002F000641C4FF000084FF00009904271EB030CB2
:1003000039D3002919BFB1FA81F701FA07F6B0FA1B
:1003100080F700FA07F6C7F120071EBF20FA07FC96
:1003200046EA0C062037B6FBF4FCA7EB0507103FA6
:1003300007F01F0BCBF120062CFA06F60CFA0BFB8C
:1003400044BFB3460026202FA4BF5E464FF0000BEB
:100350005BEA060C08BF4FF0010B19EB0B0948EBE9
:100360000608ABFB027C06FB02CC0BFB03CCC01BDC
:1003700071EB0C01C1E70B46024641464846BDE819
:10038000F08B13B5084318BF4FF0FF300146AFF3B1
:100390000080BDE81C4070470FB41CB5084B06AA8E
:1003A0007B4469460090059800F095F904460020CA
:1003B000694600F0A3F920461CBC5DF814FB000060
:1003C0005903000070B5044685690068C10601D56F
:1003D000302600E02026C00707D070BDD4E90121F7
:1003E00030469047206A401C20626D1EF6D570BDD5
:1003F00070B5044685690078C00707D170BDD4E99F
:10040000012120209047206A401C20626D1EF6D5F5
:1004100070BD00002DE9F0410646002410687529E2
:10042000314616A510D0AFF30080002802DA404212
:1004300013A507E031688A0701D512A502E0490734
:1004400004D511A5012401E0AFF3008000210A22A8
:1004500006F1240709E0B0FBF2FCB0FBF2F302FB6B
:100460001C00303078541846491C0028F3D123462C
:100470002A463046BDE8F04100F0CEB8000000004A
:100480002D0000002B000000200000002DE9F05F8F
:10049000894604464FF0000ADFF824B1FB44C0F857
:1004A00020A02046E168884700287DD0252806D076
:1004B000D4E901219047206A401C2062F1E7002521
:1004C0005F462046E16888472028064607DB312E34
:1004D00005D2B81910F8200C08B10543F1E7A807B8
:1004E00001D525F00405C4F81CA00027C4F818A005
:1004F0002A2E09D0304601F07DFF38B304EB87087F
:10050000303EC8F8186019E059F8041B204604EB87
:1005100087029161E1688847012F064618D1E0699A
:10052000002820DA25F020051DE0D8F8180000EB9F
:10053000800006EB40003038C8F818002046E1681B
:100540008847064601F056FF0028EED1012F0AD059
:100550002E2E08D12046E16888477F1C0646022FD0
:1005600045F02005C4DBA069002803DA404245F0CD
:100570000105A061E80701D025F01005A6B1A6F19C
:100580004100192802D8203645F400654A46314614
:10059000204625604D46FFF74DFE60B1012807D08B
:1005A000ED1D25F0070000E007E000F1080978E7FD
:1005B00005F1040975E730467AE7206ABDE8F09F47
:1005C0007C1F00004FF0000200B51346944696468B
:1005D000203922BFA0E80C50A0E80C50B1F1200156
:1005E000BFF4F7AF090728BFA0E80C5048BF0CC004
:1005F0005DF804EB890028BF40F8042B08BF704762
:1006000048BF20F8022B11F0804F18BF00F8012BD3
:1006100070477047704770472DE9F0470D4699467F
:100620009246044600F124080168880604D5E06972
:1006300021F01001216000E00120A84201DD471BEC
:1006400000E00027A1697A1902EB0900081AA061ED
:100650002078C00602D42046FFF7B4FE002608E04A
:10066000D4E901211AF806009047206A401C761C44
:1006700020624E45F4DB2078C0060AD52046FFF7FD
:10068000A1FE06E0D4E9012130209047206A401CF9
:100690002062381EA7F10107F4DC07E0D4E901214C
:1006A00018F805009047206A401C2062281EA5F11A
:1006B0000105F3DC2046FFF79BFE2078000602D5FB
:1006C0000220BDE8F0870120FBE7000001694A1C19
:1006D00002610878704700B58FB0CDE90131002183
:1006E000059105497944CDE9031011466846FFF7A5
:1006F000CDFE0FB000BD0000E5FFFFFF0A6802F865
:10070000010B0A607047754600F02CF8AE460500F4
:100710006946534620F00700854618B020B5FFF71C
:10072000B1FDBDE820404FF000064FF000074FF04C
:1007300000084FF0000BAC46ACE8C009ACE8C009BB
:10074000ACE8C009ACE8C00921F007018D4670474C
:1007500010B50446AFF300802046BDE81040FFF717
:100760007DBD00000048704710000020014918209E
:10077000ABBEFEE7260002007047000040F2940086
:10078000C2F2000000F0ACB8FEE7000070470000C5
:100790007047000070B581B00022009290F83C20B4
:1007A000012A03D1022001B070BD00BFD1F800E0E2
:1007B00001221FFA8EFC4FEA4C0380F83C200EEB1E
:1007C0004E0213FA8EF31024BEF1090F88BFA3F175
:1007D0001E0288BF0C24036807251E59954026EA8F
:1007E00005051D518D681E5905FA02F232431A5152
:1007F0004968062906D801EB81014A1F194651F8BC
:10080000345F0EE00C2901EB810105D8A1F1230230
:10081000194651F8305F04E0A1F14102194651F840
:100820002C5F1F24944025EA04040C600CFA02F2A9
:100830000C6842F2043CC4F2010C2243ACF5417452
:10084000A3420A603ED1BEF1120F07D1DCF80010BE
:1008500041F48001CCF8001034E000BF2EF001011B
:1008600010292FD1DCF80010BEF1100F41F4000167
:10087000CCF8001026D140F20801C2F2000109684C
:100880004DF68362C4F21B32A1FB0212910C01EB04
:100890008101490000910099A1B1009901390091AD
:1008A000009979B1009901390091009951B10099ED
:1008B00001390091009929B10099013900910099FD
:1008C0000029EAD1002180F83C10002001B070BD61
:1008D00070470000704700000068C06C704700005F
:1008E00070B50446006806684568B10717D515F06D
:1008F000200114D0216CC90603D4216C41F400718D
:100900002164816811F0405F02D1217E002969D005
:100910002046FFF7DDFF20686FF0120101607107CC
:1009200014D515F0800111D0216CC90603D4216CB7
:1009300041F400512164816811F4401F30D02046F9
:10094000FFF726FF20686FF00C010160F10706D069
:1009500015F040011CBF01685FEAC17112D1B106F8
:100960000FD515F0806108BF70BD616C6FF0200578
:1009700041F00201616405602046FFF7ABFF20688B
:10098000056070BD206C40F480302064204600F08B
:10099000F1F820686FF001010160B106E1D4F0E7E1
:1009A000816B11F4401F02D081684905C7D44168AA
:1009B0004905C4D4816811F0405FC0D1217E00296F
:1009C000BDD1416821F080014160206C20F480504D
:1009D0002064206CC005B2D4206C40F0010020647B
:1009E000ADE700BFC16A11F4700F03D081684905FB
:1009F0003FF58EAF416821F020014160206C20F46A
:100A000080702064206CC0043FF582AF206C40F001
:100A1000010020647CE70000002804BF012070472B
:100A200010B5016C00293DD0016CC90645D4016C9C
:100A300041F202129143023142F204320164C4F2E3
:100A40000102116821F440311160136890E812101E
:100A50002343D0F810E013604A68012422F4807226
:100A60004A604A68C0F6007442EA0E224A604A6848
:100A700022F040724A604A6842EA0C024A608A6880
:100A800022F400628A60C2688B681A438A60826AB4
:100A90008B68A24223F070638B608B6810D123F0C7
:100AA000405216E0044600F067F8204600216164D9
:100AB00084F83C10016CC906B9D5012153E000BF90
:100AC0001A438A608A6822F040528A60C26A8B6840
:100AD0001A438A608A6822F002028A608A68037E6A
:100AE00090F8204042EA43028A604A6884B142F4A6
:100AF00000624A604A684EF2000322F460424A6093
:100B0000426ACFF6FF734C6803EB4232224301E0A6
:100B100022F400624A60CA6A40F2000C22F47002B9
:100B2000CA62C3694269CFF6F07CCC6A0CEB03530E
:100B30002343CB628B6823F400738B6090F83030D2
:100B40008C6844EA43238B608B6823F480638B605A
:100B50008B6843EA82228A6000214164026C01238F
:100B600063F301020264002280F83C20BDE81040DB
:100B7000084670477047000080B586B042F2000119
:100B80000068C4F20101002288420592CDE90322E7
:100B90000292019202D006B080BD00BF43F6300041
:100BA0000092C4F20200436943F4807343614369D5
:100BB00003F480730093009B0092036843F00103E9
:100BC0000360006800F0010000900098012001908F
:100BD0000320CDE9020201F5604001A900F040F9CF
:100BE00012200021002200F09BFA122000F086FA69
:100BF00006B080BD70B5044600680D468268520597
:100C000044BF80685FEAC05038D400F007FA21681A
:100C10000A68920749D40646681C3CD0DDB90868CA
:100C2000800721D5086880073FD4086880071BD556
:100C30000868800739D40868800715D508688007D8
:100C400033D4086880070FD508688007E7D52CE003
:100C50000868800729D400F0E1F9801B2168A842C8
:100C6000F6D908688007F3D4206C40F004002064B3
:100C7000002084F83C00032070BD00BF206C40F0D1
:100C800020002064002084F83C00012070BD00BFDB
:100C90000868800709D40868800706D408688007B8
:100CA0005CBF08685FEA8070F2D56FF012000860E0
:100CB000206C40F400702064886810F0405F01D020
:100CC000002070BD207E0028FAD1C86A10F4700F91
:100CD00002D088684005F3D4206C20F48070206432
:100CE000206CC004ECD4206C40F001002064002093
:100CF00070BD000010B581B00021009190F83C104B
:100D0000012903D1022001B010BD00BF04680121F8
:100D100080F83C10214651F8083FDB0729D10B68C9
:100D20004DF6836243F001030B6040F20803C2F208
:100D300000031B68C4F21B32A3FB02239A0C02EBD4
:100D400042020092009AA2B1009A013A0092009ADF
:100D50007AB1009A013A0092009A52B1009A013A8F
:100D60000092009A2AB1009A013A0092009A002A51
:100D7000EAD10A68036CD2070CD143F01001016478
:100D800000F1440101200A6810430860002001B00E
:100D900010BD00BF40F2017223EA020202F5807228
:100DA00002646268520504D5026C012363F30D32BC
:100DB0000264026C4FF0000C0023D20444BF426C6A
:100DC00022F0060342F2000E436480F83CC06FF04C
:100DD0002200C4F2010E2060DEF80403C00609D030
:100DE00074450BD1DEF8080010F0405F06D14FF0DB
:100DF0008040C8E7086810F0405FF8D0002001B0DC
:100E000010BD000090F83C10012904BF022070477B
:100E100001688A6822F001028A608968C90705D1E1
:100E2000016C41F20112914301310164002180F80B
:100E30003C10002070470000B0B5044600F0EEF80A
:100E4000054640F20000C2F200000078611C18BFA5
:100E5000044400BF00F0E2F8401BA042FAD3B0BD4A
:100E60002DE9F04F83B000F1200200F13E4741F23E
:100E70000005009207F1FF77C4F2020507224FEA4E
:100E8000B726A84208BF042200254FF000084FF003
:100E90000009042E38BF4FEAB72201920AE000BFD2
:100EA00009F1010908F10208B9F1100F05F1040573
:100EB00000F0A2800F68012202FA09FE17EA0E0A6A
:100EC000EED0D1F804C003220CF003077E1E02FA14
:100ED00008F4012E6FEA040B12D88468CE6804EA85
:100EE0000B0406FA08F634438460446824EA0E06CC
:100EF000CCF3001404FA09F42643466004E000BF72
:100F0000032F01D103271EE0C6688C6806EA0B0692
:100F100004FA08F42643022FC66014D16FF00302CE
:100F2000009E02EA590756F807C005F01C040F227C
:100F30000B69A2402CEA0202A3401A43F251D1F8F5
:100F400004C00CF00307026807FA08F302EA0B0278
:100F50001A431CF4403F0260A2D0002243F644032F
:100F60000292C4F202031A6843F6004442F480423B
:100F70001A601A68C4F2010402F480420292029AD2
:100F800029F003024FF6084C2244CFF6FF7C52F8BA
:100F90000C3005F00C070F26BE40B343019E06FA45
:100FA00007F73B4342F80C30A2684B6842EA0A0755
:100FB00043F60C4CDE0258BF22EA0A07A760C4F2CF
:100FC000010CDCF800209E0242EA0A0758BF22EA20
:100FD0000A07CCF8007062689E0342EA0A0758BF0D
:100FE00022EA0A0767602268DB0342EA0A0758BF61
:100FF00022EA0A07276053E703B0BDE8F08F00003C
:10100000426902EA0103914341EA03418161704769
:10101000002A08BF090481617047000040F26C108B
:10102000C2F200000068704740F2000040F26C110C
:10103000C2F20000C2F2000100780A6810440860A1
:101040007047000080B543F60040C4F2020001681A
:1010500041F400710160016841F480610160016840
:1010600041F480710160032000F086F8002000F058
:1010700005F800F027F8002080BD000070B540F2B0
:101080000006C2F2000640F208013278C2F2000106
:101090004FF47A730968B3FBF2F20446B1FBF2F144
:1010A000084600F061FB0F2C4FF0010508D838B955
:1010B0004FF0FF3021460022002500F031F8746027
:1010C000284670BD82B0002043F640010190C4F272
:1010D00002014A6842F480424A604A6802F480424F
:1010E0000192019A0090086840F0805008600868FA
:1010F00000F080500090009802B07047002848BF70
:10110000704700F01F01012202FA01F11C2202EADD
:10111000D0004EF20012CEF2000281507047000063
:1011200010B54EF60C5CCEF2000CDCF80030C3F3C8
:10113000022E8EF00704042C28BF0424BEF1030302
:101140004FF0FF3E0EFA04F438BF0023A14399404C
:101150000EFA03F39A43114300F00F0200F16043CB
:101160000901043A03F564436244002848BF02F1D0
:101170000C03197010BD00004EF60C51CEF20001A8
:101180000A684FF6FF031A4060F30A2242F08060BB
:1011900040F0FD7008607047002804BF01207047D0
:1011A0002DE9F04143F60808C4F202080446D8F8D5
:1011B000F8030D4600F00700814207D988F8F8537C
:1011C000D8F8F80300F00700A84277D1206881071B
:1011D00017D5410705D5D8F8001041F4E051C8F8FB
:1011E0000010010705D5D8F8001041F46041C8F897
:1011F0000010D8F80010A26821F0F0011143C8F8DF
:101200000010C00740D1D8F8F80300F0070085426D
:1012100007D288F8F853D8F8F80300F00700A8427E
:101220004CD12068410707D5D8F80010E26821F4B6
:10123000E0511143C8F80010000708D5D8F80000A5
:10124000216920F4604040EAC100C8F8000000F0C5
:101250007DF8D8F8001042F22D42C1F30311C0F618
:101260000002515C40F2080220FA01F140F2040051
:10127000C2F200000068C2F200021160FFF7FEFE39
:101280000020BDE8F08100BF6068811E022907D2FE
:1012900058F8081C89015CBF0120BDE8F08111E00D
:1012A000012807D158F8081C89035CBF0120BDE85C
:1012B000F08107E058F8081C890703D40120BDE835
:1012C000F08100BFD8F8001021F003010843C8F8EE
:1012D0000000FFF7A3FE064641F28837D8F8000069
:1012E000616800F00C00B0EB810F8CD0FFF796FE28
:1012F000801BB842F2D90320BDE8F08140F208001B
:1013000043F60801C2F20000C4F202010068096855
:1013100042F23D42C1F38221C0F60002515CC84056
:101320007047000040F2080043F60801C2F20000D6
:10133000C4F202010068096842F23D42C1F3423141
:10134000C0F60002515CC8407047000010B543F67B
:101350000404C4F202046168C1F3810142F2004056
:10136000C0F2F400DFE801F002040A0210BD00BF81
:1013700041F20020C0F27A0010BD00BF216801F0E8
:101380003F02216823684902C3F3881106D4A1FBF8
:1013900000010023FEF788FF07E000BF41F20020B4
:1013A000C0F27A004843B0FBF2F021680222C1F398
:1013B000014102EB4101B0FBF1F010BD002804BF78
:1013C000012070472DE9F04182B00446007843F6D1
:1013D0000006C007C4F202060CD0B06800F00C0092
:1013E000042840F081803068800303D560680028BD
:1013F00000F06881207880071BD5B06810F00C0FD2
:1014000009D0B06800F00C00082840F087807068B0
:10141000400200F183803068800703D5E06801282E
:1014200040F050813068216920F0F80040EAC100A6
:1014300030602078000713D4207840072AD4A569AB
:10144000002D00F03A81B06800F00C00082840F050
:10145000A580012D40F00E81012002B0BDE8F08191
:101460006069002800F082800020C4F2472001213A
:10147000C0F8801EFFF7D2FD054600BF706F8007E1
:10148000DAD4FFF7CBFD401B0228F7D9032002B0C6
:10149000BDE8F081306C5FEAC0080AD400200190FA
:1014A000306C40F080503064306C00F0805001901F
:1014B000019847F20007C4F200073868C00547D416
:1014C000386840F480703860FFF7A8FD054600BF1B
:1014D0003868C0053CD4FFF7A1FD401B0228F7D9AE
:1014E000032002B0BDE8F081B06800F00C000828CD
:1014F00003D1706840023FF576AF61683068B1F59E
:10150000803F07D0B1F5A02F40F09A8040F48020B2
:101510003060306840F4803030609AE0E068002845
:1015200040F20000C4F247205CD001210160FFF7C7
:1015300075FD0546306880073FF574AFFFF76EFD17
:10154000401B0228F6D9032002B0BDE8F08100BF9D
:10155000A168306F012905D0052955D140F004005C
:101560003067306F40F00100306756E00020C4F271
:1015700047200021C0F8801EFFF750FD054600BF40
:10158000706F80077FF558AFFFF748FD401B0228BA
:10159000F6D9032002B0BDE8F08100BF0027C4F2F5
:1015A000472700203866FFF739FD022D05460DD18B
:1015B0003068800140F18A80FFF730FD401B02282F
:1015C0004FF00300F4D902B0BDE8F081306880012B
:1015D00073D5FFF723FD401B02284FF00300F5D918
:1015E000F1E700BF00210160FFF718FD054600BFCD
:1015F000306880077FF51DAFFFF710FD401B022804
:101600004FF00300F4D9DEE720F001003067306FBF
:10161000002920F0040030677AD0FFF7FFFC054670
:1016200041F28837306F800700F18480FFF7F6FCC5
:10163000401BB842F6D9032002B0BDE8F08100BFDC
:1016400020F4803030603068002920F48020306041
:101650007AD0FFF7E3FC0546306880033FF5CAAE59
:10166000FFF7DCFC401B6428F6D9032002B0BDE87C
:10167000F08100BF7068E16900F480028A4221D1E4
:10168000216A00F03F028A421CD147F6C071626AAB
:101690000140B1EB821F15D1A16A4FF6FF73C90358
:1016A000994300F44032A1F580318A420AD1E16ABF
:1016B00000F07060B0EB016F04D1002002B0BDE813
:1016C000F08100BF012002B0BDE8F08104F11C05EB
:1016D0002FCD084340EA8210D9034FF6FF729143A1
:1016E000A1F5803140EA056008437060012038664A
:1016F000FFF794FC044600BF30688001DDD4FFF79B
:101700008DFC001B02284FF00300F5D95BE700BFFA
:10171000FFF784FC054641F2883700BF306F800731
:1017200008D5FFF77BFC401BB8424FF00300F5D90A
:1017300049E700BFB8F1000F3FF581AE306C20F0F3
:10174000805030647BE600BFFFF768FC054600BFB1
:10175000306880037FF54EAEFFF760FC401B6428C5
:101760004FF00300F4D92EE7411E0020B0EB116FBB
:101770001CBF012070474EF21002CEF200025160F1
:101780004EF62351CEF20001F0230B70072190603A
:1017900011607047704700007047000090F83C20CF
:1017A000012A4FF0020241D010B580F83D200268B6
:1017B000D2F804E0D2F808C00C682EF0700323437E
:1017C00040F6FF34C4F20004A242536010DCB2F1D0
:1017D000804F1ED040F20043C4F200039A4218D05A
:1017E00040F60003C4F200039A4212D016E000BF94
:1017F00040F60043C4F200039A420AD044F20003C8
:10180000C4F201039A4204D00023C4F201039A42B5
:1018100004D149682CF08003194391600121002212
:1018200080F83D1080F83C20BDE81040104670471D
:10183000002804BF0120704710B5044690F83D0011
:1018400028B9002084F83C00204600F01FF8022050
:1018500084F83D002068211D00F0DEFB012084F8A3
:10186000460084F83E0084F83F0084F8400084F885
:10187000410084F8420084F8430084F8440084F86E
:10188000450084F83D00002010BD00000068B0F164
:10189000804F18BF704780B582B00020019043F69A
:1018A0004000C4F202000168002241F00101016021
:1018B0000068002100F00100019001981C20FFF752
:1018C0002FFC1C2002B0BDE88040FFF717BC0000D1
:1018D00090F83D1001291CBF01207047022180F8BB
:1018E0003D10006840F6FF32C168C4F20002904229
:1018F00041F00101C1600FDCB0F1804F1DD040F21A
:101900000041C4F20001884217D040F60001C4F241
:101910000001884211D017E040F60041C4F20001F6
:1019200088420AD044F20001C4F20101884204D086
:101930000021C4F20101884206D1816801F007014B
:10194000062904BF00207047016841F001010160D1
:101950000020704790F83C20012A4FF002026CD022
:1019600080B580F83D20D0F800C04FF67772DCF8E3
:10197000083023EA0202CCF808200B684F2B29DC40
:101980001F2B45DD202B46D0302B44D0402B40F080
:10199000AF80D1F804E0C968DCF82030DCF8202002
:1019A00022F00102CCF82020DCF8182022F0F0020E
:1019B00042EA011123F00A0242EA0E02CCF81810A2
:1019C000CCF82020DCF8081041F0470121F030016C
:1019D00028E000BF6F2B33DDB3F5005F74D0B3F5A3
:1019E000805F21D0702B40F08380D1E901E3C9688A
:1019F000DCF8082043EA0E0322F47F4243EA012187
:101A00001143CCF80810DCF8081041F0770109E028
:101A10000BB1102B6CD1DCF8081021F070011943C8
:101A200041F00701CCF808100022012180F83D1098
:101A3000002180F83C10BDE880401046704700BF90
:101A4000502B21D0602B53D1D1F804E0C968DCF8C9
:101A50002030DCF8202022F01002CCF82020DCF826
:101A6000182022F4704242EA013123F0A00242EA37
:101A70000E12CCF81810CCF82020DCF8081041F039
:101A8000670121F01001CDE7D1F804E0C968DCF866
:101A90002030DCF8202022F00102CCF82020DCF8F5
:101AA000182022F0F00242EA011123F00A0242EA71
:101AB0000E02CCF81810CCF82020DCF8081041F009
:101AC000570121F02001ADE7D1E901E3C968DCF855
:101AD000082043EA0E0322F47F4243EA0121114326
:101AE000CCF80810DCF8081041F480419AE700BFF8
:101AF00001229AE77047000070B504460068C56887
:101B00000669B10716D515F0020113D06FF0020176
:101B10000161012121778069800703D02046FFF70A
:101B2000E9FF05E0204600F08FF8204600F08EF82F
:101B300000202077700719D515F0040016D0206812
:101B40006FF00401016102212177806910F4407F68
:101B500004D02046FFF7CEFF06E000BF204600F08D
:101B600073F8204600F072F800202077300717D570
:101B700015F0080014D020686FF0080101610421FD
:101B80002177C069800703D02046FFF7B3FF05E047
:101B9000204600F059F8204600F058F80020207741
:101BA000F00619D515F0100016D020686FF010015E
:101BB000016108212177C06910F4407F04D02046DC
:101BC000FFF798FF06E000BF204600F03DF82046F2
:101BD00000F03CF800202077F00718BF15F0010056
:101BE00002D1300609D412E020686FF001010161D2
:101BF000204600F02DF8300609D515F0800006D0FB
:101C000020686FF0800101612046FFF7C3FD700678
:101C100009D515F0400006D020686FF04001016141
:101C2000204600F055F8B00658BF70BD15F02000F2
:101C300008D021686FF0200220460A61BDE870409C
:101C4000FFF7AABD70BD000070470000704700009C
:101C5000B0B50068B0F1804F18BFB0BD40F270045D
:101C6000C2F2000404F124052846FFF743F8284691
:101C70000121FEF7BFFF08B1B0BD00BF2846FEF747
:101C80002BFE82B240F6E44111235143C1F201031D
:101C9000A1FB031324F8020B1B0A0AA12046FEF73E
:101CA0007BFB82B240F22410C2F2000021460A23DC
:101CB00000F07AF80020C4F202002021BDE8B04014
:101CC000FFF79EB9253034752C253034750D0A0088
:101CD00070470000002804BF0120704710B504467B
:101CE00090F8410028B9002084F84000204600F018
:101CF00021F8242084F841002068C16821F40051B3
:101D0000C160204600F004FA2068016921F4904186
:101D10000161416921F02A014161C16841F400512A
:101D2000C16000202021606484F8411084F84210D2
:101D3000606310BD80B586B044F200410068C4F213
:101D40000001002288420592CDE90322029201920D
:101D500002D006B080BD00BF43F630000092C4F24E
:101D60000200036943F400330361036903F40033A1
:101D70000093009B0092036843F001030360006836
:101D800000F00100009000980C2001900220CDE9A5
:101D900002020720059001F5DE3001A90492FFF749
:101DA0005FF806B080BD00002DE9F04381B0044625
:101DB00090F84100202809D100294FF0010018BFF8
:101DC000002A07D101B0BDE8F08300BF022001B0B6
:101DD000BDE8F0830020606421201D460E4684F893
:101DE00041001746FFF71AF9A784E784A1688146E6
:101DF000B1F5805F02D1206900285DD03746002010
:101E0000E28C2168002A5DD06A1C24D0002D4AD0C3
:101E1000804600BF0868000608D4FFF7FFF8A0EB73
:101E20000900A8427AD82168C868F3E717B117F803
:101E3000010B04E038F8020B00276FF35F204860C5
:101E4000E08C0138E084E08C0028E3D13AE000BF68
:101E50000A68120609D40A68120606D40A6812062D
:101E60005CBF0A685FEA0262F2D51FB117F8012B66
:101E700005E000BF30F8022B00276FF35F224A60B5
:101E8000E28C013AE284E28C002AE4D11AE000BF3D
:101E900030F8022B00276FF35F224A60E28C013A90
:101EA000E284E28C72B10A68120635D5002FEFD0B9
:101EB00017F8012BF1E700BF00273046E28C2168BC
:101EC000002AA1D1086840061ED42DB3681C14D185
:101ED000086840062AD40868400627D408684006E7
:101EE00024D4086840064FF00000F1D50DE000BF93
:101EF0002068C1680068400618D4FFF78FF8A0EB8F
:101F00000900A842F4D909E00020202184F84110FA
:101F100001B0BDE8F08300BFFFF780F80320202167
:101F200084F8411001B0BDE8F08300BF00202021FB
:101F300084F8411001B0BDE8F0830000FEE7000026
:101F4000FEE70000FEE70000704700007047000059
:101F5000FFF76AB870B592B006AC20463021FEF7A4
:101F600031FB002543F640000595CDE90355CDE949
:101F700001550095C4F202000168022641F080512B
:101F80000160006800F080500090009847F2000067
:101F90000095C4F20000016866F38F3101600068AB
:101FA00000F44040009000980120099010200A9011
:101FB0000E904FF4A8700F900420109007201190FD
:101FC00020460696CDE90C65FFF7F8F910B172B618
:101FD000FEE700BF0F20CDE901064FF48050CDE9A8
:101FE000040501A802210395FFF7D6F810B172B6D7
:101FF000FEE700BF12B070BD4EF68850CEF2000072
:10200000016841F4700101607047000040F2DC009B
:10201000C2F20000FFF770BDB0B540F2FF7E056868
:10202000C4F2000E40F2000C7045C4F2010C1DDD3C
:1020300040F60003C4F20003984220D060451ED051
:1020400040F60043C4F20003984218D04FF6FF73E5
:10205000C4F2000398421DDC704527DCB0F1804FCC
:102060003CD040F20043C4F2000335E0B0F1804FB1
:1020700005D040F20043C4F200039842E6D14B6819
:1020800025F0700243EA02054FF6FF73C4F2000325
:102090009842E1DD44F2FF33C4F20103984211DCBF
:1020A00060451BD044F2000314E000BF40F600037B
:1020B000C4F20003984211D040F60043C4F200037A
:1020C0000AE000BF44F60003C4F20103984205D0C1
:1020D00044F20043C4F20103984204D1CB6825F4D2
:1020E000407243EA02050A688C684B696045C46225
:1020F000826202D10969CCF83010026825F08001B3
:1021000042F0040219430260012242610160B0BD45
:10211000B0B50446006804F108030ECB0569194305
:1021200025F440552A4302616269E3691143C2689C
:10213000194349F20C639A431143C1604169A26992
:1021400021F4407141F20043114340F48062C4F233
:1021500001039A42416103D1FFF7E4F802E000BFB6
:10216000FFF7CCF8E1694FF69C7563681922C0F659
:10217000FF75B1F5004FA0FB02011FD15A00DB0F24
:10218000FEF792F848F21F51C5F2EB11A0FB0123B4
:102190005A0905F1805302FB0300322303EBC00010
:1021A000A0FB01014FF4F87000EA111000EB0210DF
:1021B000C1F34211084421688860B0BD9A009B0FAA
:1021C000FEF772F848F21F51C5F2EB11A0FB012394
:1021D0005A0902FB0500322303EB0010A0FB0101AA
:1021E000F02000EA511000EB0210C1F34311084443
:1021F00021688860B0BD0000FEE7000088B00024C0
:10220000C4F20204FEF71EFFFFF7A4FE002643F609
:1022100030000596CDE90366CDE901660696C4F265
:1022200002000168002241F00401016001682027DA
:1022300001F00401069106990696016841F08001BB
:102240000160016801F08001069106990696016817
:1022500041F001010160016801F001010691069958
:102260000696016841F0020101600068202100F03B
:102270000200069006982046FEF7CAFE4FF4005072
:1022800001904FF4041001ADCDE9020604F50060A1
:102290002946FEF7E5FD0197012720462946CDE9AD
:1022A00002760496FEF7DCFD40F27005C2F20005EE
:1022B000A4F56041284640F8241F4FF480314FF0C8
:1022C00080524FF0C0630496067680F82060C0E923
:1022D0000A32C76180F83060C0E90116C0E90366C0
:1022E0004761FEF799FB18B172B600BFFEE700BF69
:1022F00007202435039001A92846CDE90167FEF7A0
:1023000049FA18B172B600BFFEE700BF40F22410D0
:10231000A4F5DE31C2F2000000260C234FF4E132B6
:1023200080E84600C0E90366C0E90536C661FFF7EC
:10233000D1FC18B172B600BFFEE700BF20200690A6
:1023400040F2DC008021C2F200004FF0804204968F
:10235000CDE9026607914AF20F43312780E8CC00AD
:1023600006618161FFF764FA10B172B6FEE700BF43
:102370004FF48050019040F2DC00C2F2000001A94D
:10238000FFF7E8FA10B172B6FEE700BF40F2DC00DA
:10239000C2F2000006A9FFF701FA18B172B600BF39
:1023A000FEE700BF2846FEF7A5FC0A20FEF744FD25
:1023B0002846FEF727FD40F2DC00C2F20000FFF7DE
:1023C00087FA20462021FEF71BFE40F22410C2F2BD
:1023D000000003A112226423FFF7E6FCFEE700BF22
:1023E000414443203430487A2073746172746564C8
:1023F0000D0A000030380A2801D201207047002061
:102400007047F1EE100A4FF6FF71C0F2C03120EABA
:10241000010040F04070E1EE100A7047040000082F
:102420000000000000000002000100001000000099
:102430000000000000010203040607080900000074
:1024400000010203040000006824000800000020CE
:1024500010000000F8010008782400081000002097
:1024600060070000180200080100000010000000D2
:082470000024F400000000004C
:040000050800019559
:00000001FF
